:1070000058C000008BC000006FC000006DC00000C1
:107010006BC0000069C0000067C0000065C00000D0
:1070200063C0000061C000005FC000005DC00000E0
:107030005BC0000059C0000057C0000055C00000F0
:1070400053C0000051C000004FC000004DC0000000
:107050004BC0000049C0000047C0000045C0000010
:1070600043C0000041C0000009021200010100807D
:107070003209040000000000000012011001FF00AE
:10708000000881179F0C0501010200011003550043
:1070900053004200740069006E0079001203410041
:1070A00064006100660072007500690074000403EA
:1070B000090411241FBECFEFD8E0DEBFCDBF11E021
:1070C000A0E0B1E0E0EBF8E702C005900D92A2303D
:1070D000B107D9F711E0A2E0B1E001C01D92AE33D3
:1070E000B107E1F771D3E2C38BCFA82FB92F80E0AE
:1070F00090E041E050EA609530E009C02D91822790
:107100009795879510F084279527305EC8F36F5FB9
:10711000A8F30895EADF8D939D930895CF93CFB799
:10712000CF93C395189BE9F7189B09C0189B07C01C
:10713000189B05C0189B03C0189B01C0A1C0DF931A
:10714000C0912101DD27C85DDE4F189B02C0DF9191
:10715000EBCF2F930F931F9303B12FEF00FB20F979
:107160004F933F9313B14FEF012700FB21F93BE011
:1071700031C04E7F012F13B1216028C0102F4D7FE9
:107180002260000003B129C04B7F2460012F000062
:1071900013B12BC013B1477F28602AC04F7E03B1C3
:1071A00020612CC04F7D13B120622FC04F7B03B1F3
:1071B000206432C0422703B149934FEF00001027EB
:1071C00010FB20F913B11370C9F1297F91F2012747
:1071D00000FB21F903B1237F89F2315058F11027C8
:1071E00010FB22F913B1277E79F2012700FB23F966
:1071F0002F7C81F203B1102710FB24F92F7971F253
:1072000000C013B1012700FB25F92F7359F200C00C
:1072100003B1102710FB26F9223040F200C013B151
:10722000012700FB27F9243028F64F77206813B197
:107230000000F9CF11E01CBB002717C03B5031956F
:10724000C31BD04011E01CBB0881033CE9F00B34A8
:10725000D9F020911F011981110F1213EDCF0936BA
:1072600041F10D3211F0013E39F7009326013F91B3
:107270004F911F910F912F91DF91CCB3C0FD51CF52
:10728000CF91CFBFCF91189520912601222379F37A
:1072900010912401112311F5343012F1309324019F
:1072A00020932001109121013BE0311B30932101FB
:1072B00017C00091240101308CF40AE530910001DF
:1072C00034FD10C000930001C4E1D1E00FC0279548
:1072D000A8F45150A9F4220F0000F9CF4AE503C0E9
:1072E00042ED01C0432FC4E1D0E032E014B113609D
:1072F000289A14B905B120E413E05F93012756E002
:1073000005B9279520F4515021F4220FF9CF012718
:1073100056E000003B5A05B9D0F2279528F45150A9
:1073200029F4220F0000F9CF012756E0279505B96F
:1073300020F4515021F4220FF9CF012756E0299172
:10734000332305B921F60C7F10912501110FC65189
:10735000D04005B911F010931F0111E01CBB016072
:1073600014B11C7F402F4C7F5F9100C000C005B955
:1073700014B945B97CCF809113018823B1F0F894FA
:10738000E0910F01F0911001329785E08093570052
:10739000E895789407B600FCFDCFF89481E18093DE
:1073A0005700E8957894109213010895AF92BF9218
:1073B000CF92DF92EF92FF920F931F93CF93DF93C1
:1073C0001F92CDB7DEB780912401835087FD54C151
:1073D000909121014CE0A42EB12CA91AB10828E209
:1073E00031E0A20EB31E11E0109304019091200130
:1073F0009D3209F0D0C0883009F03CC183EC809305
:1074000014018AE58093000110920601D5018C9148
:10741000807609F450C011962C91222309F4BEC144
:10742000213009F4BDC1263021F4A5DF10930501F8
:1074300028C02730F9F49FDF87E091E09093230183
:1074400080932201F5018381809309019281903319
:1074500069F481110BC0E481F0E0EE0FFF1F81E2BF
:1074600080935700E491E0930A0102C010920A0150
:1074700024E083C02E3011F47EDF92C1283019F44D
:107480007ADF20E07AC0D50114968D919C911597F2
:107490009093100180930F0116968C9180931101A7
:1074A000822F8950843068F7209312012A3009F422
:1074B00079C161DF77C1F501928110921D0181814F
:1074C000811106C010921E018DE191E022E04AC0B8
:1074D000853019F4909325013BC0863081F5838176
:1074E000813019F48AE790E704C0823041F488E6DD
:1074F00090E7909323018093220122E11CC0833006
:10750000C9F4911108C08EEA90E79093230180930B
:10751000220124E010C0913019F48CE990E7E9CF02
:10752000923041F48CE890E79093230180932201FC
:1075300020E101C020E080E4809306011EC0883075
:1075400059F0893019F49093270102C08A3039F03C
:107550008DE191E020E006C087E291E002C08DE17C
:1075600091E021E0909323018093220106C0F50170
:10757000268180E8809306010BC0D50117968C9177
:107580001797811105C016968C91821708F4282F41
:10759000209301016FC09091060197FF6BC0F0909E
:1075A0001101E82EF81608F4EF2CFE18F0921101E4
:1075B000809112018C30C9F485010FC0F8016191EE
:1075C0008F0180910F01909110019C012F5F3F4F1F
:1075D0003093100120930F015BD1802F8A198E15F3
:1075E00068F3FF2009F444C045C08A30D1F7850113
:1075F00023E0C22EDD24D39435C080910F019091F9
:1076000010018F779927892BF9F0D0921301F89404
:10761000E0910F01F0911001D8018D919D918D01A4
:107620000C01D0925700E8951124789480910F01B5
:107630009091100102969093100180930F018F7723
:107640009927892B79F40DC0F894E0910F01F091FE
:107650001001C0925700E895789407B600FCFDCF62
:10766000D4CF89DE802F8A198E1508F4C6CFB9CF02
:1076700010920101109224018091000184FF83C0C7
:10768000809101018F3F09F47EC0F82E893010F0FF
:1076900098E0F92E8F19809301018091140198E8E8
:1076A000892780931401FF2009F45BC02091060113
:1076B00027FF31C0809111018F1508F4F82E8F1922
:1076C000809311012091120185E1C82E81E0D82E0E
:1076D000EC2C1CC000910F01109110012B3039F4DB
:1076E000C8012983CDD0F6018083298106C02930C5
:1076F00021F4F8018491D6018C93BFEFCB1ADB0AF9
:107700000F5F1F4F1093100100930F018C2D8E19E6
:107710008F1500F323C0809122019091230126FF51
:107720000BC0FC01A5E1B1E02F2D2A0F34913D9350
:1077300031962A13FBCF09C0DC01E5E1F1E02F2DE2
:107740002E0F3D9131932E13FCCF01962F2D2150FA
:10775000820F911D9093230180932201E8E0EF15A1
:1077600060F06F2D85E191E0D5DC8F2D8C5F8C3042
:1077700041F09FEF9093010104C08FEF80930101CE
:107780008EE18093000184E193B1937089F481507C
:10779000D9F71092250110921F010AC028E0EDCE02
:1077A00021E0EBCED5018C9187FDE1CE2FEFE1CE2C
:1077B0000F90DF91CF911F910F91FF90EF90DF908D
:1077C000CF90BF90AF90089584B7877F84BF88E142
:1077D0000FB6F89480936000109260000FBE81E0B5
:1077E00085BF82E085BF85E080938100809169003C
:1077F000826080936900E89A209A80918400909139
:107800008500883B9B40C8F320987894259A2D9A50
:10781000CDDD80910401811107C080918400909199
:1078200085008115994820F480910501882381F312
:10783000109285001092840001C0B8DD809105018E
:10784000882339F08091840090918500883B9B408B
:10785000A0F31092810010928500109284001DBA4E
:107860001092690081E085BF15BE25982D98F89487
:10787000E0910201F0910301099580E090E0089504
:10788000F999FECF92BD81BDF89A992780B50895E8
:10789000262FF999FECF1FBA92BD81BD20BD0FB62C
:1078A000F894FA9AF99A0FBE01960895F894FFCFCA
:0278B0005AFF7D
:040000030000700089
:00000001FF
