:200000000C9434000C9451000C9451000C9451000C9451000C9451000C9451000C94510075
:200020000C9451000C9451000C9451000C9451000C9451000C9451000C9451000C94510038
:200040000C94F0020C9451000C9451000C9451000C9451000C9451000C9451000C94510077
:200060000C9451000C94510011241FBECFEFD8E0DEBFCDBF12E0A0E0B1E0E8E5F7E002C084
:2000800005900D92A231B107D9F714E0A2E1B2E001C01D92AA35B107E1F70E94E1020C94C4
:2000A000AA030C940000A0E0B0E0E9E5F0E00C947D037C01EB018A01690109C0CE01219678
:2000C000F6010995F70181937F010150104001151105A1F7CDB7DEB7E8E00C9499039C01E0
:2000E000F999FECF32BD21BDF89A80B50895FF920F931F93189B0CC028E088E190E00FB666
:20010000F894A895809360000FBE20936000FFCF80917A0086FD13C01A9B07C0809179000E
:200120008695885F8093000205C08091790081958093470480917A00806480937A008091D8
:200140004A04880F80934A04809101028F5F80930102909100028917D0F110920102809107
:2001600046048F5F8093460490914504891710F0109246048091460490E023E0880F991FD7
:200180002A95E1F78E5E9D4F909349048093480491E090934A0480914404892780934404DB
:2001A00020E134E03093430420934204882331F4285E3F4F3093430420934204E091420489
:2001C000F091430488E1DF011D928A95E9F780E194E090934304809342049093410480934D
:2001E0004004209144044896222329F0909341048093400404C09093430480934204F090C0
:200200004A04FF2059F0E0914804F0914904819180934B04F0934904E09348040091020205
:20022000109103027091040260914B0450914704E0914004F0914104A0914204B09143042B
:2002400080914C0490914D0420914E0430914F0440915004019008B80BB805B915B801905F
:2002600008B80BB815B915B8019008B80BB875B915B8019008B80BB805B93A2F15B80190B8
:2002800008B80BB815B94B2F15B8019008B80BB875B9A62F15B8019008B80BB805B9A295D9
:2002A000A695A77015B8019008B80BB815B9BB27AB5FBD4F15B8019008B80BB875B98C9119
:2002C000A62FA69515B8019008B80BB805B9A695A770BB27AB5FBD4F9C91A62F15B80190C5
:2002E00008B80BB815B9A370BB27A35FBD4F2C9100C015B8503039F0859F812D959F912DF3
:20030000259F212D1124019008B80BB875B9A82FBB27A050BF4F8C91A92FBB2715B8019068
:2003200008B80BB805B9A050BF4F9C91A22FBB27A050BF4F2C91A32FB42F0C9080FD0F28DE
:200340000D9215B8019008B80BB815B90C9090FD0F280D920C9020FD0F280D920C9081FDA7
:200360000F280D9215B8019008B80BB875B90C9091FD0F280D920C9021FD0F280D920C906C
:2003800082FD0F280D9215B8019008B80BB805B90C9092FD0F280D920C9022FD0F280D92D7
:2003A0000C9083FD0F280D920C9093FD0F280D920C9023FD0F280D920C9084FD0F280D92C4
:2003C000000015B8019008B80BB815B90C9094FD0F280D920C9024FD0F280D920C9085FDBA
:2003E0000F280D920C9095FD0F280D920C9025FD0F280D920C9086FD0F280D92000015B8CD
:20040000019008B80BB875B90C9096FD0F280D920C9026FD0F280D920C9087FD0F280D920A
:200420000C9097FD0F280D920C9027FD0F280D9200C000C000C015B8019008B80BB805B941
:2004400000C032E127D015B8019008B80BB815B900C032E11FD015B8019008B80BB875B952
:2004600000C032E117D015B8019008B80BB805B938E210D015B8019008B80BB815B938E260
:2004800009D015B8019008B80BB875B938E202D015B803C03A95F1F70895F0934104E09369
:2004A0004004B0934304A093420480934C0490934D0420934E0430934F04409350041F912C
:2004C0000F91FF9008950F931F93DF93CF9300D0CDB7DEB7F8941BB88BB188B982E085B9C3
:2004E00088E384B987E087B988EF8AB978E040E050E075B961E020E030E06BB98BB188B92B
:200500001A82198205C089819A8101969A83898389819A8180529E44B0F3660F2F5F3F4FED
:200520002830310551F71BB88BB188B988B185B9770F4F5F5F4F43305105D9F680917E0015
:20054000886080937E0083E680937C0086EC80937A00F999FECF81E090E092BD81BDF89ADC
:2005600040B5409345044150409346044F5F02E112E050E033E0440F551F3A95E1F7C801BF
:2005800062E070E02FE630E00E9453001093490400934804E0E1F4E080E3DF011D928A953A
:2005A000E9F7F0934104E09340047896F0934304E09342040F900F90CF91DF911F910F91ED
:2005C0000895CF93DF930E9438030E946302C0E0D0E00E9477002097E1F30E940000F9CF68
:2005E0001F920F920FB60F9211242F933F938F939F93AF93BF938091550490915604A0917C
:200600005704B0915804309159040196A11DB11D232F2D5F2D3720F02D570196A11DB11DA8
:20062000209359048093550490935604A0935704B09358048091510490915204A09153042F
:20064000B09154040196A11DB11D8093510490935204A0935304B0935404BF91AF919F9118
:200660008F913F912F910F900FBE0F901F901895789484B5826084BD84B5816084BD85B566
:20068000826085BD85B5816085BDEEE6F0E0808181608083E1E8F0E010828081826080833F
:2006A000808181608083E0E8F0E0808181608083E1EBF0E0808184608083E0EBF0E08081B8
:2006C00081608083EAE7F0E0808184608083808182608083808181608083808180688083F6
:2006E0001092C10008952F923F924F925F926F927F928F929F92AF92BF92CF92DF92EF924D
:20070000FF920F931F93CF93DF93CDB7DEB7CA1BDB0B0FB6F894DEBF0FBECDBF09942A88A6
:20072000398848885F846E847D848C849B84AA84B984C884DF80EE80FD800C811B81AA81CE
:20074000B981CE0FD11D0FB6F894DEBF0FBECDBFED010895F894FFCF000000000000000068
:20076000000000000000000000000000000000000101010101010101010101010202020265
:200780000202020203030303030304040404050505050506060606070707080808090909B6
:2007A0000A0A0A0B0B0B0C0C0D0D0D0E0E0F0F101011111212131314141515161617181830
:2007C00019191A1B1B1C1D1D1E1F1F2021222223242526262728292A2A2B2C2D2E2F30319A
:2007E00032333435363738393A3B3C3D3E3F4041424445464748494B4C4D4E5051525455AA
:200800005658595A5C5D5E606163646667696A6C6D6F7072737577787A7C7D7F8182848638
:2008200088898B8D8F91929496989A9C9EA0A2A4A6A8AAACAEB0B2B4B6B8BABCBFC1C3C50D
:20084000C7CACCCED1D3D5D7DADCDFE1E3E6E8EBEDF0F2F5F7FAFCFF1EFE140C240024498E
:200860006D92B6DBFF0055AAFF00FFFFFFFFFFFFFFFFFFFFFFFFFFFFFFFFFFFFFFFFFFFF01
:200880000303030303040404040505050505060606060707070808080909090A0A0A0B0B8C
:2008A0000B0C0C0D0D0D0E0E0F0F101011111212131314141515161617181819191A1B1BE1
:2008C0001C1D1D1E1F1F2021222223242526262728292A2A2B2C2D2E2F3031323334353617
:2008E0003738393A3B3C3D3E3F4041424445464748494B4C4D4E50515254555658595A5CF0
:200900005D5E606163646667696A6C6D6F7072737577787A7C7D7F8182848688898B8D8F3C
:2009200091929496989A9C9EA0A2A4A6A8AAACAEB0B2B4B6B8BABCBFC1C3C5C7CACCCED1C8
:20094000D3D5D7DADCDFE1E3E6E8EBEDF0F2F5F7FAFCFF0024496D92B6DBFF0055AAFF005C
:20096000FFFFFFFFFFFFFFFFFFFFFFFFFFFFFFFFFFFFFFFFFFFFFFFFFFFFFFFFFFFFFFFF97
:200980001F1F2021222223242526262728292A2A2B2C2D2E2F303132333435363738393AE8
:2009A0003B3C3D3E3F4041424445464748494B4C4D4E50515254555658595A5C5D5E606195
:2009C00063646667696A6C6D6F7072737577787A7C7D7F8182848688898B8D8F91929496AB
:2009E000989A9C9EA0A2A4A6A8AAACAEB0B2B4B6B8BABCBFC1C3C5C7CACCCED1D3D5D7DAFC
:200A0000DCDFE1E3E6E8EBEDF0F2F5F7FAFCFF0024496D92B6DBFF0055AAFF00FFFFFFFFF8
:200A2000FFFFFFFFFFFFFFFFFFFFFFFFFFFFFFFFFFFFFFFFFFFFFFFFFFFFFFFFFFFFFFFFD6
:200A4000FFFFFFFFFFFFFFFFFFFFFFFFFFFFFFFFFFFFFFFFFFFFFFFFFFFFFFFFFFFFFFFFB6
:200A6000FFFFFFFFFFFFFFFFFFFFFFFFFFFFFFFFFFFFFFFFFFFFFFFFFFFFFFFFFFFFFFFF96
:200A800010C08D919C911197E80FF91F20818D919C91119701968F73907011969C938E9360
:200AA00030E0C9010895DC0191968C919197882339F05496ED91FC915597808186FFF9CF73
:200AC00091961C920895CF93DF93EC01EE85FF85E05CFF4F20813181E054F0402F5F3F4F8F
:200AE0002F733070DF01AE5BBF4F8D919C91119728173907D1F3E05CFF4F80819181E054B6
:200B0000F040E80FF91F6083EE85FF85E05CFF4F31832083EE89FF89208181E090E00F8CCF
:200B200002C0880F991F0A94E2F7282B208381E089A3EC89FD8980818064808381E090E0F6
:200B4000DF91CF910895109215051092140588EE93E0A0E0B0E08093160590931705A09318
:200B60001805B09319058FE392E090931305809312058AE894E090931F0580931E058EECD1
:200B800094E0909321058093200585EC90E0909323058093220584EC90E0909325058093BA
:200BA000240580EC90E0909327058093260581EC90E0909329058093280582EC90E0909334
:200BC0002B0580932A0586EC90E090932D0580932C0584E080932E0583E080932F0587E06D
:200BE0008093300585E08093310581E0809332050895CF93DF930E948B030E945A02C4E20F
:200C0000D4E00E9429012097E1F30E942404F9CFCF92DF92EF92FF920F931F93CF93DF932B
:200C20007C016B018A01C0E0D0E00FC0D6016D916D01D701ED91FC910190F081E02DC70124
:200C40000995C80FD91F015010400115110571F7CE01DF91CF911F910F91FF90EF90DF9086
:200C6000CF900895EF92FF920F931F938C01DC01ED91FC910190F081E02D6DE009957C0126
:200C8000D801ED91FC910190F081E02DC8016AE009959C012E0D3F1DC9011F910F91FF90D3
:200CA000EF900895CF93DF93EC016115710519F420E030E00FC0DB010D900020E9F711975E
:200CC000A61BB70BE881F9810280F381E02DAD0109959C01C901DF91CF9108954F925F92B9
:200CE0007F928F929F92AF92BF92CF92DF92EF92FF920F931F93DF93CF93CDB7DEB7A197A2
:200D00000FB6F894DEBF0FBECDBF2C01742ECB01223008F42AE019A231E2C32ED12CCC0E03
:200D2000DD1E822E9924AA24BB24672D752FA50194010E94280779018A01C801B701A5012E
:200D400094010E940907472D461B0894C108D1084A3014F4405D01C0495CF6014083E11405
:200D6000F1040105110521F07E2C5F2DC801DDCFC201B6010E945206A1960FB6F894DEBF0D
:200D80000FBECDBFCF91DF911F910F91FF90EF90DF90CF90BF90AF909F908F907F905F9024
:200DA0004F900895DC012115310541F4ED91FC910190F081E02D642F099508950E946E063B
:200DC0000895EF92FF920F931F939A01E62EFF2400E010E0B801A7010E94D2061F910F9143
:200DE000FF90EF9008950E9452060895EF92FF920F931F937C010E9452068C01C7010E94DD
:200E00003206080F191FC8011F910F91FF90EF900895629FD001739FF001829FE00DF11D96
:200E2000649FE00DF11D929FF00D839FF00D749FF00D659FF00D9927729FB00DE11DF91FB2
:200E4000639FB00DE11DF91FBD01CF0111240895A1E21A2EAA1BBB1BFD010DC0AA1FBB1F89
:200E6000EE1FFF1FA217B307E407F50720F0A21BB30BE40BF50B661F771F881F991F1A944B
:200E800069F760957095809590959B01AC01BD01CF010895EE0FFF1F0590F491E02D09946B
:200EA0002F923F924F925F926F927F928F929F92AF92BF92CF92DF92EF92FF920F931F93A0
:200EC000CF93DF93CDB7DEB7CA1BDB0B0FB6F894DEBF0FBECDBF09942A88398848885F8450
:200EE0006E847D848C849B84AA84B984C884DF80EE80FD800C811B81AA81B981CE0FD11D76
:200F00000FB6F894DEBF0FBECDBFED010895F894FFCF57656C636F6D6520746F204D696E92
:200F200069504F5620342100466F756E6420612000206279746520696D61676500015020D9
:200F4000010024496D92B6DBFF0055AAFF0000000000000000000000000000000000000096
:200F600000000000000101010101010101010101010202020202020202030303030303043F
:200F80000404040505050505060606060707070808080909090A0A0A0B0B0B0C0C0D0D0D4E
:200FA0000E0E0F0F101011111212131314141515161617181819191A1B1B1C1D1D1E1F1F72
:200FC0002021222223242526262728292A2A2B2C2D2E2F303132333435363738393A3B3C69
:200FE0003D3E3F4041424445464748494B4C4D4E50515254555658595A5C5D5E60616364FF
:201000006667696A6C6D6F7072737577787A7C7D7F8182848688898B8D8F91929496989AF9
:201020009C9EA0A2A4A6A8AAACAEB0B2B4B6B8BABCBFC1C3C5C7CACCCED1D3D5D7DADCDF2C
:20104000E1E3E6E8EBEDF0F2F5F7FAFCFF0000000063050806F9042A050A05530500FFFF5C
:20106000FFFFFFFFFFFFFFFFFFFFFFFFFFFFFFFFFFFFFFFFFFFFFFFFFFFFFFFFFFFFFFFF90
:20108000929FF00D839FF00D749FF00D659FF00D9927729FB00DE11DF91F639FB00DE11D91
:2010A000F91FBD01CF0111240895A1E21A2EAA1BBB1BFD010DC0AA1FBB1FEE1FFF1FA21700
:2010C000B307E407F50720F0A21BB30BE40BF50B661F771F881F991F1A9469F76095709573
:2010E000809590959B01AC01BD01CF010895EE0FFF1F0590F491E02D09942F923F924F92F0
:201100005F926F927F928F929F92AF92BF92CF92DF92EF92FF920F931F93CF93DF93CDB758
:20112000DEB7CA1BDB0B0FB6F894DEBF0FBECDBF09942A88398848885F846E847D848C8442
:201140009B84AA84B984C884DF80EE80FD800C811B81AA81B981CE0FD11D0FB6F894DEBF28
:201160000FBECDBFED010895F894FFCF57656C636F6D6520746F204D696E69504F5620346C
:201180002100466F756E6420612000206279746520696D61676500015020010024496D92BC
:2011A000B6DBFF0055AAFF00000000000000000000000000000000000000000000000001A0
:2011C0000101010101010101010101020202020202020203030303030304040404050505C3
:2011E0000505060606060707070808080909090A0A0A0B0B0B0C0C0D0D0D0E0E0F0F1010AD
:2012000011111212131314141515161617181819191A1B1B1C1D1D1E1F1F2021222223249D
:201220002526262728292A2A2B2C2D2E2F303132333435363738393A3B3C3D3E3F40414255
:201240004445464748494B4C4D4E50515254555658595A5C5D5E606163646667696A6C6DA0
:201260006F7072737577787A7C7D7F8182848688898B8D8F91929496989A9C9EA0A2A4A64A
:20128000A8AAACAEB0B2B4B6B8BABCBFC1C3C5C7CACCCED1D3D5D7DADCDFE1E3E6E8EBED26
:2012A000F0F2F5F7FAFCFF0000000090063507260657063706800600FFFFFFFFFFFFFFFF55
:2012C000FFFFFFFFFFFFFFFFFFFFFFFFFFFFFFFFFFFFFFFFFFFFFFFFFFFFFFFFFFFFFFFF2E
:2012E000FFFFFFFFFFFFFFFFFFFFFFFFFFFFFFFFFFFFFFFFFFFFFFFFFFFFFFFFFFFFFFFF0E
:201300004F925F926F927F928F929F92AF92BF92CF92DF92EF92FF920F931F93CF93DF93F9
:20132000CDB7DEB7CA1BDB0B0FB6F894DEBF0FBECDBF09942A88398848885F846E847D84CC
:201340008C849B84AA84B984C884DF80EE80FD800C811B81AA81B981CE0FD11D0FB6F894B3
:20136000DEBF0FBECDBFED010895F894FFCF53657474696E6720737065656420746F200060
:2013800057656C636F6D6520746F204D696E69504F5620342100466F756E642061200020AA
:2013A0006279746520696D616765000E0F1003040506070C0B0D0100000000DC068107720F
:2013C00006A3068306CC0600FFFFFFFFFFFFFFFFFFFFFFFFFFFFFFFFFFFFFFFFFFFFFFFF1B
:2013E000FFFFFFFFFFFFFFFFFFFFFFFFFFFFFFFFFFFFFFFFFFFFFFFFFFFFFFFFFFFFFFFF0D
:2014000048885F846E847D848C849B84AA84B984C884DF80EE80FD800C811B81AA81B98168
:20142000CE0FD11D0FB6F894DEBF0FBECDBFED010895F894FFCF53657474696E67207370D4
:2014400065656420746F200057656C636F6D6520746F204D696E69504F5620342100466FA0
:20146000756E6420612000206279746520696D616765000E0F1003040506070C0B0D010022
:201480000000004007E507D6060707E706300700FFFFFFFFFFFFFFFFFFFFFFFFFFFFFFFF1B
:2014A000FFFFFFFFFFFFFFFFFFFFFFFFFFFFFFFFFFFFFFFFFFFFFFFFFFFFFFFFFFFFFFFF4C
:2014C000FFFFFFFFFFFFFFFFFFFFFFFFFFFFFFFFFFFFFFFFFFFFFFFFFFFFFFFFFFFFFFFF2C
:2014E000FFFFFFFFFFFFFFFFFFFFFFFFFFFFFFFFFFFFFFFFFFFFFFFFFFFFFFFFFFFFFFFF0C
:20150000FFFFFFFFFFFFFFFFFFFFFFFFFFFFFFFFFFFFFFFFFFFFFFFFFFFFFFFFFFFFFFFFEB
:2070000058C000008BC000006FC000006DC000006BC0000069C0000067C0000065C0000011
:2070200063C0000061C000005FC000005DC000005BC0000059C0000057C0000055C0000070
:2070400053C0000051C000004FC000004DC000004BC0000049C0000047C0000045C00000D0
:2070600043C0000041C00000040309041203410064006100660072007500690074001003A0
:20708000550053004200740069006E00790012011001FF00000881179F0C050101020001CA
:2070A00009021200010100803209040000000000000011241FBECFEFD8E0DEBFCDBF11E050
:2070C000A0E0B1E0ECE6F8E702C005900D92A230B107D9F711E0A2E0B1E001C01D92AE3349
:2070E000B107E1F753D3C0C38BCFA82FB92F80E090E041E050EA609530E009C02D918227DE
:207100009795879510F084279527305EC8F36F5FA8F30895EADF8D939D930895CF93CFB7D3
:20712000CF93C395189BE9F7189B09C0189B07C0189B05C0189B03C0189B01C0A1C0DF93D7
:20714000C0912101DD27C85DDE4F189B02C0DF91EBCF2F930F931F9303B12FEF00FB20F9CB
:207160004F933F9313B14FEF012700FB21F93BE031C04E7F012F13B1216028C0102F4D7FDB
:207180002260000003B129C04B7F2460012F000013B12BC013B1477F28602AC04F7E03B126
:2071A00020612CC04F7D13B120622FC04F7B03B1206432C0422703B149934FEF00001027FF
:2071C00010FB20F913B11370C9F1297F91F2012700FB21F903B1237F89F2315058F1102750
:2071E00010FB22F913B1277E79F2012700FB23F92F7C81F203B1102710FB24F92F7971F21A
:2072000000C013B1012700FB25F92F7359F200C003B1102710FB26F9223040F200C013B1DF
:20722000012700FB27F9243028F64F77206813B10000F9CF11E01CBB002717C03B503195A8
:20724000C31BD04011E01CBB0881033CE9F00B34D9F020911F011981110F1213EDCF093624
:2072600041F10D3211F0013E39F7009326013F914F911F910F912F91DF91CCB3C0FD51CFE7
:20728000CF91CFBFCF91189520912601222379F310912401112311F5343012F1309324011B
:2072A00020932001109121013BE0311B3093210117C00091240101308CF40AE530910001FC
:2072C00034FD10C000930001C4E1D1E00FC02795A8F45150A9F4220F0000F9CF4AE503C073
:2072E00042ED01C0432FC4E1D0E032E014B11360289A14B905B120E413E05F93012756E001
:2073000005B9279520F4515021F4220FF9CF012756E000003B5A05B9D0F2279528F4515044
:2073200029F4220F0000F9CF012756E0279505B920F4515021F4220FF9CF012756E0299184
:20734000332305B921F60C7F10912501110FC651D04005B911F010931F0111E01CBB0160BE
:2073600014B11C7F402F4C7F5F9100C000C005B914B945B97CCF809105018823B1F0F89440
:20738000E0910801F0910901329785E080935700E895789407B600FCFDCFF89481E1809341
:2073A0005700E8957894109205010895CF92DF92EF92FF920F931F93CF93DF939091240156
:2073C000935097FD45C1809121010CE010E0081B1109085D1E4FFF24F394F09202018091D2
:2073E00020018D3209F0D4C0983009F02FC183EC809314018AE58093000110920601D801D3
:207400008C91807609F453C011962C91222311F428E0A9C0213009F4A6C0263021F4ABDF81
:20742000F09207013BC02730F9F4A5DF8CE091E09093230180932201F801938190930E0166
:207440008281803369F4992359F4E481F0E0EE0FFF1F81E280935700849180930F0102C0F9
:2074600010920F0124E07FC02E3019F484DF21E07AC0283011F47FDF11C0D80114968D91E1
:207480009C911597909309018093080116968C9180930B01822F8950843010F020E063C081
:2074A00020930A012A3009F462C165DF60C1F801928110921D018181882321F410921E01E0
:2074C00022E04BC0853019F49093250145C08630A1F5D80113968C91813019F48EE890E7F9
:2074E00017C0823019F480EA90E712C0833001F5F8018281882341F488E690E79093230192
:207500008093220124E015C0813041F48CE690E7909323018093220122E10BC0823041F45B
:207520008EE790E7909323018093220120E101C020E080E48093060116C0883021F421E0FE
:2075400087E291E00CC0893019F49093270104C08A3011F421E001C020E08DE191E090932D
:20756000230180932201D80117968C91882339F00BC0F801968180E88093060106C0D8013E
:2075800016969C91921708F0922F909301015EC08091060187FF5AC080910B01F92E8917D1
:2075A00008F4F82EE82EEF18E0920B0180910A018C3099F4E8010CC08091080190910901AF
:2075C00001969093090180930801019769913ED1FE01E01BEF1580F335C08A3009F032C01F
:2075E000E80183E0C82EDD24D39428C0E0910801F0910901CF018F779070892B41F4F894A9
:20760000C0925700E895789407B600FCFDCFD0920501F894888199810C01D0925700E89559
:2076200011247894CF01029690930901809308018F779070892B09F49EDE22969E01201B93
:207640002F15A0F2EE2011F410920101109224018091000184FF80C0809101018F3F09F423
:207660007BC0182F893008F018E0811B809301018091140198E8892780931401112309F47F
:2076800059C08091060187FF30C080910B01811708F4182F811B80930B0100910A01C5E14E
:2076A000D1E0E12EFF24EC0EFD1E1BC00B3039F48091080190910901C1D0888308C00930AD
:2076C00031F4E0910801F0910901E491E883219680910801909109010196909309018093CD
:2076E0000801CE15DF0511F723C0209122013091230186FF0AC0912FF901A5E1B1E08491E1
:207700008D9331969150D9F708C0912FD901E5E1F1E08D9181939150E1F7C901019611502B
:20772000810F911D1F5F909323018093220102C0193060F485E191E0612FECDC612F6C5F27
:207740006C3041F08FEF8093010104C08FEF809301016EE16093000194E183B1837069F436
:207760009150D9F71092250110921F0106C0D8018C9187FDFECE9FEFFECEDF91CF911F91E8
:207780000F91FF90EF90DF90CF90089584B7877F84BF88E10FB6F89480936000109260001D
:2077A0000FBE81E085BF82E085BF85E08093810080916900826080936900E89A209A809193
:2077C000840090918500885B9B40C8F320987894EDDD80910201882339F4809184009091D6
:2077E00085008050994820F480910701882381F3109285001092840001C0D8DD809107012B
:20780000882339F08091840090918500885B9B40A0F31092810010928500109284001DBAC1
:207820001092690081E085BF15BEF894E0910301F0910401099580E090E00895F999FECFD4
:2078400092BD81BDF89A992780B50895262FF999FECF1FBA92BD81BD20BD0FB6F894FA9A9B
:0E786000F99A0FBE01960895F894FFCF5AFFD3
:00000001FF
